:0C800000F8B500BFF8BC08BC9E467047F5
:10800C0008B5074B044613B10021AFF30080054BB4
:10801C001868836A03B19847204600F055FB00BFEF
:10802C0000000000F089000010B5054C237833B92E
:10803C00044B13B10448AFF300800123237010BD2F
:10804C00880A010000000000FC890000084B10B5F4
:10805C001BB108480849AFF300800848036803B90E
:10806C0010BD074B002BFBD0BDE81040184700BFDC
:10807C0000000000FC8900008C0A0100080A0100C5
:10808C0000000000154B002B08BF134B9D46A3F5B9
:10809C00803A00218B460F461348144A121A00F0FE
:1080AC0061FC0F4B002B00D098470E4B002B00D0DF
:1080BC0098470020002104000D000D48002802D034
:1080CC000C48AFF3008000F027FC2000290000F0E2
:1080DC0005FCFFF795FF00BF000008000000000042
:1080EC000000000000000000880A0100240B0100C1
:1080FC00000000000000000080B483B000AF034615
:10810C00FB71094997F907305B09FA7902F01F02F4
:10811C00012000FA02F2603341F823200C37BD46EF
:10812C005DF8047B704700BF00E100E080B483B0D1
:10813C0000AF78600B46FB707B6803F070427B6885
:10814C00C3F313035B011344FA789200134403F155
:10815C0000731A46012313600C37BD465DF8047B8F
:10816C00704700BF80B483B000AF78600B46FB70E3
:10817C007B6803F070427B68C3F313035B01134409
:10818C00FA789200134403F100731A46002313602B
:10819C000C37BD465DF8047B704700BF80B584B0DA
:1081AC0000AFF860B9601346FB71FB68144A934248
:1081BC0004D0FB68134A934200D000BEFB79F868E8
:1081CC00B9681A4600F020F9FB681B683033184672
:1081DC000321FFF7C7FFFB681B68343318460221E5
:1081EC00FFF7C0FFFB681B68383318460021FFF708
:1081FC00B9FFFB68044A5A621037BD4680BD00BF08
:10820C00E40A0100A40A0100ED85000080B487B0E7
:10821C0000AF7860396000237B617B68264A93420B
:10822C0004D07B68254A934200D000BE3B68002BEB
:10823C0000D100BE7B68204A934203D07B681F4A62
:10824C00934233D13B68002B30D03A687B6913449E
:10825C001B78FB7327E07B681B681B7DBB737B68FB
:10826C005A7BBB7B1343DAB27B685A73BB7B03F03C
:10827C002003002BEFD000233B610EE07B681B68D2
:10828C00FA7B1A703B6901333B617B6901337B617B
:10829C003A687B6913441B78FB73FB7B002B02D081
:1082AC003B690F2BEAD9FB7B002BD4D11C37BD4685
:1082BC005DF8047B704700BFE40A0100A40A0100CA
:1082CC0080B588B000AF786039607B684A4A9342C9
:1082DC0004D07B68494A934200D000BE7B68464A72
:1082EC00934204D07B68454A934240F082807B687D
:1082FC003A689A6000F0EEF97B683F4A934203D1EA
:10830C003F4B1B68FB6102E03E4B1B68FB61FB694A
:10831C00DA003B68B2FBF3F3BB61BB695B087B61C2
:10832C007B699B093B613B699B017A69D31AFB60B2
:10833C003B69DB01BA69D21AFB685B00D31AFA6895
:10834C001344FB603B69B3F5803F00D300BE3B692F
:10835C00B3F5803F4DD23B69012B2AD97B681B6852
:10836C000C3318460721FFF7E1FE7B681B683A695E
:10837C00120AD2B21A717B681B683A69D2B21A70AF
:10838C007B681B680C3318460721FFF7EBFE7B68F4
:10839C001B68303318460721FFF7C8FEFB68FF2B1C
:1083AC0000D900BE7B681B68FA68D2B283F83C2007
:1083BC001FE07B681B680C3318460721FFF7B6FEDD
:1083CC007B681B683A69120AD2B21A717B681B6807
:1083DC003A69D2B21A707B681B680C3318460721B5
:1083EC00FFF7C0FE7B681B68303318460721FFF788
:1083FC00B9FE2037BD4680BDE40A0100A40A010085
:10840C00100A0100140A010080B584B000AFF860B6
:10841C00B9601346FB71FB686D4A934204D0FB684C
:10842C006C4A934200D000BEFB68694A934216D155
:10843C00FB684FF080421A60FB680A221A71664A88
:10844C00654B9B6C43F0800393640A20FFF754FE4A
:10845C00614A614B9B6C23F08003936414E0FB68CE
:10846C005E4A1A60FB680B221A715B4A5A4B9B6C72
:10847C0043F4807393640B20FFF73EFE564A564B31
:10848C009B6C23F480739364FB681B6800221A7145
:10849C00FB681B6800221A72FB681B6808331846BD
:1084AC000121FFF743FEFB681B68083318460221C5
:1084BC00FFF73CFEFB681B68083318460021FFF7EA
:1084CC0035FEFB681B68103318460421FFF74AFE83
:1084DC00FB681B68103318460521FFF743FEFB6849
:1084EC001B68343318460121FFF73CFEFB681B6800
:1084FC00343318460021FFF735FEFB681B68383310
:10850C0018460121FFF72EFEFB681B683033184616
:10851C000521FFF727FEFB681B6830331846062140
:10852C00FFF720FEFB681B68303318460721FFF766
:10853C0019FEFB681B68383318460321FFF712FE3F
:10854C00FB681B68002283F84420FB681B68002230
:10855C0083F84820FB681B68002283F84C20F868DD
:10856C00B968FFF7ADFEFB681B68FA791A73FB68F4
:10857C00BA689A60FB68FA791A73FB6800225A6130
:10858C00FB6800221A61FB6800229A61FB680022DA
:10859C001A62FB6800225A62FB680022DA61FB68EF
:1085AC0000229A62FB680022DA62FB6800221A63DE
:1085BC00FB6800225A63FB6800229A63FB68002266
:1085CC00DA63FB6800225A731037BD4680BD00BFCA
:1085DC00E40A0100A40A01000080034000000140ED
:1085EC0080B586B000AF78607B68354A934204D082
:1085FC007B68344A934200D000BE7B681B69002B19
:10860C0000D100BE7B685B69002B00D100BE7B688B
:10861C002B4A934203D07B682A4A93424CD17B6805
:10862C001B69002B48D07B685B69002B44D07B68AE
:10863C001B681B7DFB737B685A7BFB7B1343DAB295
:10864C007B685A73FB7B03F02003002B24D0102390
:10865C003B617B685A697B689B69D31ABB60BB68BA
:10866C000F2B01D8BB683B6100237B6110E07B685A
:10867C001B687A6811697A6892690A4412781A70D0
:10868C007B689B695A1C7B689A617B6901337B61AF
:10869C007A693B699A42EAD37B689A697B685B6921
:1086AC009A4209D17B6800225A617B681B680433AB
:1086BC0018460121FFF756FD1837BD4680BD00BF97
:1086CC00E40A0100A40A010080B483B000AF786012
:1086DC00FEE700BF80B588B000AF2F4BD3F89830C1
:1086EC0003F08063FB61FB69002B4BD12A4BD3F861
:1086FC00983003F48053BB61BB69002B15D1274B19
:10870C00274A1A60274B264A1A60274B244A1A60BC
:10871C00264B274A1A60274B214A1A60264B204ABF
:10872C001A60264B1E4A1A602BE0254A3B1D106826
:10873C00516803C3184BD3F89C309B0903F0070313
:10874C007B613A1D7B6913441B78FB74FB7C012B0A
:10875C000AD0022B0DD0002B0FD100F035F8F860A9
:10876C00F86800F04FF80CE04FF4004000F04AF8C5
:10877C0007E0144800F046F803E0124800F042F815
:10878C0000BF05E000F020F8F860F86800F03AF857
:10879C002037BD4680BD00BF008003400C0A01009D
:1087AC0080F0FA02100A0100140A0100180A0100F4
:1087BC0020BCBE001C0A0100200A0100240A010092
:1087CC008C89000040420F0080B483B000AF0A4B8C
:1087DC00D3F8503103F004033B603B68002B02D10B
:1087EC00064B7B6001E0064B7B607B6818460C37C0
:1087FC00BD465DF8047B70470080034040787D01E6
:10880C0080F0FA0280B483B000AF78600C4A7B68C9
:10881C0013600C4A7B6813600B4A7B6813600B4B2C
:10882C000B4A1A600B4A7B6813600B4A7B68136017
:10883C000A4A7B6813600C37BD465DF8047B7047B1
:10884C000C0A0100100A0100140A0100180A0100A8
:10885C0020BCBE001C0A0100200A0100240A0100F1
:10886C0080B485B000AF0023FB604FF00053BB60B9
:10887C000C4B7B600023FB600AE0BB681A1DBA60DE
:10888C007A68111D796012681A60FB680133FB600D
:10889C00FB68B3F5705FF0D31437BD465DF8047B0D
:1088AC00704700BF0000026080B582B000AF094B7A
:1088BC007B604FF000531B683B603B6883F3088878
:1088CC00054A054B1B6843F0010313607B681B686A
:1088DC009847FEE7040000200080034080B500AFFD
:1088EC000A4B18464FF461410322FFF757FC074B24
:1088FC0018460749FFF78AFC044B18460549FFF751
:10890C0085FCFFF7ADFFFFF7CFFFFEE7A40A0100E0
:10891C0094890000B88900000E4B70B51E460E4CB1
:10892C000025E41AA410A54204D056F82530984727
:10893C000135F8E7FFF75EFB084B094C1E46E41ABD
:10894C00A4100025A54204D056F8253098470135CF
:10895C00F8E770BD000A0100000A0100000A0100DE
:10896C00040A010003460244934202D003F8011B9F
:04897C00FAE770475F
:0C898000F8B500BFF8BC08BC9E4670476C
:10898C0000010001020203030A0D0A0D2A2A2A2003
:10899C00536D617274467573696F6E322049535012
:1089AC002044656D6F202A2A2A0A0D000A0D526593
:1089BC006D6D6170696E6720746865206D61696E9C
:1089CC00206170706C69636174696F6E20636F6491
:1089DC006520746F20655352414D5F30200A0D00A5
:0889EC0043000000280A01000D
:0889F4009CF6FF7F010000006A
:0489FC000000000077
:020000021000EC
:040A00005980000019
:040A04003580000039
:040A080000000000EA
:100A0C0080F0FA0280F0FA0280F0FA0220BCBE00FC
:100A1C0080F0FA0280F0FA0280F0FA020000000086
:100A2C0000000000000000000000000000000000BA
:100A3C00000000000000000000000000EC89000035
:100A4C00000000000000000000000000000000009A
:100A5C00000000000000000000000000000000008A
:100A6C00000000000000000000000000000000007A
:0C0A7C000000000000000000000000006E
:0400000300008091E8
:00000001FF
