:1000000000000120910100007F0300008103000037
:100010008303000085030000870300000000000048
:100020000000000000000000000000008903000044
:100030008B030000000000008D0300008F03000010
:100040009103000093030000950300009703000054
:10005000990300009B0300009D0300009F03000024
:10006000A1030000A3030000090A0000250A000004
:10007000A9030000AB030000AD030000AF030000C4
:10008000B1030000B3030000B5030000B703000094
:10009000B9030000BB030000BD030000BF03000064
:1000A000C1030000C3030000C5030000C703000034
:1000B000C9030000CB030000CD030000CF03000004
:1000C000D1030000D3030000D5030000D7030000D4
:1000D000D9030000DB030000DD030000DF030000A4
:1000E000E1030000E3030000E5030000E703000074
:1000F000E9030000EB030000ED030000EF03000044
:10010000F1030000F3030000F5030000F703000013
:10011000F9030000FB030000FD030000FF030000E3
:1001200001040000030400000504000007040000AF
:10013000090400000B0400000D0400000F0400007F
:10014000110400001304000015040000170400004F
:10015000190400001B0400001D0400001F0400001F
:1001600021040000230400002504000027040000EF
:10017000290400002B0400002D0400002F040000BF
:100180003104000033040000000000000000000003
:100190004FF0000BDFF8BE020068DFF8B612096806
:1001A00001F0030100F01C00142801D14BF0020BF8
:1001B000002901D04BF0010BBBF1000F05D0A7487F
:1001C000A749DFF8722200F09FF8A64880470BF09D
:1001D000020ABAF1000F0CD0DFF86E02DFF86E12DF
:1001E00002680B680FB44FF000024FF0FF0302608B
:1001F0000B609D489D4A9E4B022808D1DFF83E12B5
:100200000A60DFF842120A60DFF836120B6001283C
:1002100008D1DFF82E120A60DFF82A120A60DFF830
:100220001E120B609348002809D193489349944AC1
:1002300000F032F893489449944A00F02DF894481D
:100240009449954A00F028F894489549DFF8E6214A
:1002500000F05AF8BBF1000F12D092489249DFF833
:10026000DA2100F051F80BF0020ABAF1000F07D0C2
:100270000FBC02600B6000BFAFF30080AFF30080E3
:10028000DFF828020FF2030E00474FF000004FF096
:100290000001DFF81CF2FEE72DE9F841884225D085
:1002A000B2EB010200D5FEE740EA010313F00303BD
:1002B00002D000F01DF819E04FF000039046121133
:1002C000F7D09A421CBFF0C8F0C103F10103F8D186
:1002D00008F00F08B8F1000F08D004780C7000F196
:1002E000010001F10101B8F10108F6D1BDE8F88182
:1002F00008B54FF0000303780B7000F1010001F125
:100300000101013AF7D108BD884237D000F0030659
:10031000002E14D04FF00405A5EB06044FF008079B
:1003200007FB06F8914669FA08F9002C07D080F817
:10033000009069FA07F900F10100013CF5E74FF080
:1003400000060F46091A88460911914614461546BB
:10035000B14206D018BFA0E8340206F10106B1424E
:10036000F8D108F00F08B8F1000F07D002704FEA7B
:10037000322200F10100B8F10108F4E77047FEE70E
:10038000FEE7FEE7FEE7FEE7FEE7FEE7FEE7FEE745
:10039000FEE7FEE7FEE7FEE7FEE7FEE7FEE7FEE735
:1003A000FEE7FEE7FEE7FEE7FEE7FEE7FEE7FEE725
:1003B000FEE7FEE7FEE7FEE7FEE7FEE7FEE7FEE715
:1003C000FEE7FEE7FEE7FEE7FEE7FEE7FEE7FEE705
:1003D000FEE7FEE7FEE7FEE7FEE7FEE7FEE7FEE7F5
:1003E000FEE7FEE7FEE7FEE7FEE7FEE7FEE7FEE7E5
:1003F000FEE7FEE7FEE7FEE7FEE7FEE7FEE7FEE7D5
:10040000FEE7FEE7FEE7FEE7FEE7FEE7FEE7FEE7C4
:10041000FEE7FEE7FEE7FEE7FEE7FEE7FEE7FEE7B4
:10042000FEE7FEE7FEE7FEE7FEE7FEE7FEE7FEE7A4
:10043000FEE7FEE7704700000000A2A2A2A2008033
:100440000340088003401080034030800340348024
:1004500003403880034018080240000000F80020E4
:1004600000000120410A0000000000000000000020
:10047000010000000000000000000000000000007B
:1004800090010000C0040000C0040000A00C0000A7
:10049000A00C000000F0002020F0002020F0002040
:1004A000C0F00020C0F0002000F80020D10B0000B8
:1004B000710B0000000000000000000000000000C0
:1004C00010B5054C237833B9044B13B10448AFF38E
:1004D00000800123237010BD20F0002000000000E8
:1004E0007C0C0000084B10B51BB108480849AFF35D
:1004F00000800848036803B910BD074B002BFBD0F0
:10050000BDE81040184700BF000000007C0C000050
:1005100024F0002000F0002000000000244B98424E
:1005200003D0244A904200D000BE0269002A3AD08B
:10053000416901B900BE984203D01E4B984200D0D9
:100540007047002AFCD00029FAD030B40468457BFB
:10055000237DDBB21D4313F0200F4573836911D057
:10056000CD1A0F2D21D91025002101E00468026960
:10057000D35C013123708369A94203F101038361D4
:10058000F4D3416999420CD103680021043303F08C
:10059000704202F10072C3F3130304325B01416144
:1005A000D15030BC704700BEC2E7002DDCD1E9E776
:1005B0007CF000203CF000202DE9F04FDFF864E2F1
:1005C00083B070450446904600F0DB808F4B984224
:1005D00000D000BE8E488F4B05469A6C8E4E42F47A
:1005E00080724FF00B0C4FF40067206084F804C059
:1005F0009A64C6F880719A6C22F480729A6400231F
:100600002B7122684FF0010C13722268744502F1BD
:10061000080002F1100502F13409C0F3130A00F0DA
:10062000704002F1380702F13006C5F3130B00EBFE
:100630004A1005F07045C9F3130A09F0704905EB3B
:100640004B1509EB4A19C7F3130BC6F3130A07F04E
:10065000704706F0704607EB4B1706EB4A1600F1A1
:10066000007006F1007605F1007509F1007907F1D7
:100670000077C0F804C0C0F808C0C0F800C02B6103
:100680006B61C9F80430C9F800307B607361B361F5
:10069000F361FB6082F84430226882F848302268B7
:1006A00082F84C3000F08280584B9C4217D000BE3C
:1006B0002268002382F80C80A16084F80C806361BA
:1006C0002361A36123626362E361A362E362236344
:1006D0006363A363E363637303B0BDE8F08FA1605A
:1006E000019100F0CDF94D4B01991B68DB00B3FB84
:1006F000F1F2D309B3F5803F4FEA520ED7D2012B66
:1007000026684FF0010759D906F10C0000F070453A
:1007100005F10075C0F31300C2F3C73C1C3540015E
:100720002F5086F804C02068DDB205702668AEEB55
:10073000831E06F10C0506F13000AEEBC31305F085
:10074000704900F0704C1344A3EB4E0309F10072A2
:10075000C5F313050CF1007CC0F313001C326D01CE
:100760004FF0000E0CF11C0C4001FF2B42F805E08D
:100770004CF8007000D900BEDBB286F83C3022682D
:1007800097E7244B24489A6C4FF4806542F080022E
:100790004FF080470A26276026719A64C0F880517E
:1007A0009A6C256822F080029A6428E7A160019182
:1007B00000F066F91A4B01991B6897E706F10C02E5
:1007C00002F0704000F10070C2F3130200251C30EB
:1007D0005201875035712268DBB21370226802F132
:1007E0000C0002F1300300F0704703F0704607F18F
:1007F0000077C0F3130006F10076C3F313031C3730
:1008000040011C365B013D50F55052E73CF00020A2
:10081000000001400080034000E100E018F00020EB
:1008200014F000207CF000200268137A03F00F031C
:100830000C2B0AD8DFE803F007090F1371090B0925
:10084000090909097100836A23B900BE7047C369A9
:10085000002BFAD01847436A002BF6D018472832ED
:1008600002F07043C2F31302520103F10071895880
:1008700010B511F0FF0F04460AD0C16A002959D003
:10088000884723682833C3F31302520103F07043EF
:100890001A4402F100735B6813F0FF0F0CD0236B56
:1008A000002B45D0204698472268283202F070433A
:1008B000C2F3130203EB421202F100739B6813F0C0
:1008C000FF0F0CD0636B002B30D020469847226876
:1008D000283202F07043C2F3130203EB421202F11A
:1008E0000073DB6813F0FF0F0BD0A36BE3B120465E
:1008F00098472268283202F07043C2F3130203EBD8
:10090000421202F10072136913F0FF0F09D0E36B7A
:1009100043B12046BDE810409CE7036A002B94D009
:10092000184710BD00BE10BD00BEEAE700BED6E706
:1009300000BEC1E700BEABE7F8B5194B04469842CC
:1009400003D0184B984200D000BE2046FFF734FE7B
:100950002368154E03F1300103F1340201F07045B4
:10096000383302F0704003F0704705F10075C1F3B1
:10097000130100F10070C2F31302C3F313034FF02D
:10098000000E0C3549010830520107F100775B0178
:1009900045F801E040F802E047F803E06662F8BD80
:1009A0007CF000203CF000201D050000144B70B4CA
:1009B000984206D0134B984203D000BEE1B170BC00
:1009C0007047C9B10E78002EF9D000250468427B2B
:1009D000237DDBB21A439B064273F9D54B1905F10F
:1009E000100200E00468267013F8016F0135002E34
:1009F000E5D09542F6D1E9E700BE70BC704700BF74
:100A00007CF000203CF00020684620F007018D4675
:100A100001B50348FFF708FFBDE801408546704770
:100A20007CF00020684620F007018D4601B50348A0
:100A3000FFF7FAFEBDE80140854670473CF0002014
:100A40004FF602020C4BD3F84C11914206D00B4AE0
:100A5000536943F400735361FFF7ECBCD3F898205B
:100A600042F48072C3F89820D3F8982022F0806274
:100A7000C3F89820EBE700BF0080034000ED00E0E2
:100A8000F0B5244B83B0D3F89820510117D4D3F894
:100A90009820D2042ED56A461F490868496803C2C7
:100AA000D3F89C2002A9C2F382120A4412F8082C3F
:100AB000012A23D003D3DFF88CE0184B09E0D3F8E8
:100AC0005011174A11F0040F164B18BF1346DFF8E8
:100AD00074E0154F154E164D164C1748174A184915
:100AE000CEF800303B6033602B6023600360116000
:100AF00003B0F0BDDFF84CE0094BEAE7DFF844E073
:100B0000094F0A4E0A4D0B4C0B480C4A0C494FF446
:100B10000043E5E7008003401C0C000040420F004A
:100B200080F0FA0240787D0114F0002018F00020D7
:100B30000CF0002010F0002004F0002008F000204D
:100B400020BCBE001CF0002008B54FF000531B680D
:100B500083F30888044A05491368096843F00103D0
:100B600013608847FEE700BF0080034004000020B8
:100B700000B5032283B012484FF46141FFF7DCFE59
:100B80000F481049FFF712FF0D480F49FFF70EFFFE
:100B9000002301930193019BB3F5705F0ED20B4BC1
:100BA000196803F13F4202F57E021160019A043395
:100BB00001320192019AB2F5705FF1D3FFF7C4FFE1
:100BC0003CF00020240C0000480C000000000260F3
:100BD0000E4B70B51E460E4C0025E41AA410A5421B
:100BE00004D056F8253098470135F8E700F046F86C
:100BF000084B094C1E46E41AA4100025A54204D057
:100C000056F8253098470135F8E770BD940C000080
:100C1000940C0000940C0000980C000000010001EE
:100C2000020203030A0D0A0D2A2A2A20536D61725B
:100C300074467573696F6E32204953502044656D58
:100C40006F202A2A2A0A0D000A0D52656D6D617007
:100C5000696E6720746865206D61696E20617070CF
:100C60006C69636174696F6E20636F646520746F73
:100C700020655352414D5F30200A0D00F8B500BF8A
:100C8000F8BC08BC9E467047F8B500BFF8BC08BC6D
:100C90009E467047E5040000C1040000000000000B
:100CA0000000000080F0FA0220BCBE0080F0FA02D2
:100CB00080F0FA0280F0FA0280F0FA0280F0FA0284
:040000030000019167
:00000001FF
