:1000000000F00000910100007F0300008103000068
:100010008303000085030000870300000000000048
:100020000000000000000000000000008903000044
:100030008B030000000000008D0300008F03000010
:100040009103000093030000950300009703000054
:10005000990300009B0300009D0300009F03000024
:10006000A1030000A3030000AD110000C9110000AE
:10007000A9030000AB030000AD030000AF030000C4
:10008000B1030000B3030000B503000079080000CD
:10009000B9030000BB030000BD030000BF03000064
:1000A000C1030000C3030000C50300008512000067
:1000B0001D130000CB030000CD030000CF030000A0
:1000C000D1030000D3030000D5030000D7030000D4
:1000D000D9030000DB030000DD030000DF030000A4
:1000E000E1030000E3030000E5030000E703000074
:1000F000E9030000EB030000ED030000EF03000044
:10010000F1030000F3030000F5030000F703000013
:10011000F9030000FB030000FD030000FF030000E3
:1001200001040000030400000504000007040000AF
:10013000090400000B0400000D0400000F0400007F
:10014000110400001304000015040000170400004F
:10015000190400001B0400001D0400001F0400001F
:1001600021040000230400002504000027040000EF
:10017000290400002B0400002D0400002F040000BF
:100180003104000033040000000000000000000003
:100190004FF0000BDFF8BE020068DFF8B612096806
:1001A00001F0030100F01C00142801D14BF0020BF8
:1001B000002901D04BF0010BBBF1000F05D0A7487F
:1001C000A749DFF8722200F09FF8A64880470BF09D
:1001D000020ABAF1000F0CD0DFF86E02DFF86E12DF
:1001E00002680B680FB44FF000024FF0FF0302608B
:1001F0000B609D489D4A9E4B022808D1DFF83E12B5
:100200000A60DFF842120A60DFF836120B6001283C
:1002100008D1DFF82E120A60DFF82A120A60DFF830
:100220001E120B609348002809D193489349944AC1
:1002300000F032F893489449944A00F02DF894481D
:100240009449954A00F028F894489549DFF8E6214A
:1002500000F05AF8BBF1000F12D092489249DFF833
:10026000DA2100F051F80BF0020ABAF1000F07D0C2
:100270000FBC02600B6000BFAFF30080AFF30080E3
:10028000DFF828020FF2030E00474FF000004FF096
:100290000001DFF81CF2FEE72DE9F841884225D085
:1002A000B2EB010200D5FEE740EA010313F00303BD
:1002B00002D000F01DF819E04FF000039046121133
:1002C000F7D09A421CBFF0C8F0C103F10103F8D186
:1002D00008F00F08B8F1000F08D004780C7000F196
:1002E000010001F10101B8F10108F6D1BDE8F88182
:1002F00008B54FF0000303780B7000F1010001F125
:100300000101013AF7D108BD884237D000F0030659
:10031000002E14D04FF00405A5EB06044FF008079B
:1003200007FB06F8914669FA08F9002C07D080F817
:10033000009069FA07F900F10100013CF5E74FF080
:1003400000060F46091A88460911914614461546BB
:10035000B14206D018BFA0E8340206F10106B1424E
:10036000F8D108F00F08B8F1000F07D002704FEA7B
:10037000322200F10100B8F10108F4E77047FEE70E
:10038000FEE7FEE7FEE7FEE7FEE7FEE7FEE7FEE745
:10039000FEE7FEE7FEE7FEE7FEE7FEE7FEE7FEE735
:1003A000FEE7FEE7FEE7FEE7FEE7FEE7FEE7FEE725
:1003B000FEE7FEE7FEE7FEE7FEE7FEE7FEE7FEE715
:1003C000FEE7FEE7FEE7FEE7FEE7FEE7FEE7FEE705
:1003D000FEE7FEE7FEE7FEE7FEE7FEE7FEE7FEE7F5
:1003E000FEE7FEE7FEE7FEE7FEE7FEE7FEE7FEE7E5
:1003F000FEE7FEE7FEE7FEE7FEE7FEE7FEE7FEE7D5
:10040000FEE7FEE7FEE7FEE7FEE7FEE7FEE7FEE7C4
:10041000FEE7FEE7FEE7FEE7FEE7FEE7FEE7FEE7B4
:10042000FEE7FEE7FEE7FEE7FEE7FEE7FEE7FEE7A4
:10043000FEE7FEE7704700000000A2A2A2A2008033
:100440000340088003401080034030800340348024
:1004500003403880034018080240000000D000002C
:1004600000F000000D14000000000000000000007B
:10047000010000000000000000000000000000007B
:1004800090010000C0040000C0040000C01A000079
:10049000C01A0000C01A0000501B0000501B0000D2
:1004A000802C0000802C000000D000000918000003
:1004B00081160000000000000000000000000000A5
:1004C00010B5054C237833B9044B13B10448AFF38E
:1004D00000800123237010BD501B000000000000AD
:1004E000A01A0000084B10B51BB108480849AFF32B
:1004F00000800848036803B910BD074B002BFBD0F0
:10050000BDE81040184700BF00000000A01A00001E
:10051000541B0000C01A00000000000010B5064C7B
:100520000146236833B1054A10689847044A0023FE
:100530002360137010BD00BF881B0000941B0000D7
:10054000781B0000054B1A6822F004021A605A68F2
:10055000D207FCD5014B9861704700BF0060014095
:100560000E4B13B51A6822F004021A605B6803F0A0
:10057000010301930023019A0AB919460AE08B424C
:1005800008D0C45C054A01331461526802F00102CC
:100590000192F0E7084602B010BD00BF00600140C4
:1005A000024B1B6803B11847704700BF7C1B00005B
:1005B00008B5084B1B7863B1074B188880B2FFF76A
:1005C000ADFF064B1A6842F001021A601A68D207A2
:1005D000FCD408BD781B00008C1B000000600140AB
:1005E00070B51A4A1A4C1B4E00234FF40025C4F86C
:1005F00080509360C4F880513060174803701748EA
:1006000003701748036017480380174803601748B2
:1006100003601748016017490B8017490B80174981
:100620000B6017490B70136823F0200313601368E5
:1006300043F010031360936823F001039360936801
:1006400043F002039360256070BD00BF006001406D
:1006500000E100E07C1B0000781B0000991B0000FB
:10066000741B0000801B0000841B0000901B000016
:10067000941B00006C1B00008C1B0000881B0000FA
:10068000981B00002DE9F74F064693460F4601B927
:1006900000BE2F4ADFF8E4A04FF4002100250193AB
:1006A000C2F88010CAF80850C2F88011FFF780FF26
:1006B000284A4FF0010882F8008027493278019BD0
:1006C0000A70264A264CC2F800B0DFF8B4B0278082
:1006D000244ACBF800300C9BDFF8A8901360BDF8DB
:1006E0003420214BC9F800601A80204B204A1D801D
:1006F000204B1D600E9B1360DAF8083043F00203B4
:10070000CAF808300878FFF71DFF06EB0800791ECD
:10071000FFF726FF4044B842174A09D2238882F8DF
:1007200000801B1A9BB230442380C9F8000007E008
:100730002580DBF800300BB1022300E003231370A7
:10074000034B4FF400221A6003B0BDE8F08F00BFE6
:1007500000E100E0781B0000991B0000841B0000F2
:10076000801B0000941B00006C1B00008C1B000011
:10077000881B0000701B0000981B000000600140F7
:10078000901B0000741B00002DE9F84F06469246AE
:100790009B460F4601B900BE29492A4B00244FF45D
:1007A0000020C1F880009C60C1F88001FFF700FFC5
:1007B000254B4FF0010883F8008024493378244DFD
:1007C0000B70244B2F801C60234B244A1C60244B4D
:1007D000A2F800B0C3F800A0224B234A1C800A9B59
:1007E000DFF8909013600B9B204A08781360C9F8DB
:1007F0000060FFF7A7FE06EB0800791EFFF7B0FECA
:100800004044B84238BF2B88194A33BF1B1A05230E
:1008100013709BB238BF82F800800A4A34BF2B8025
:100820002C80936838BF801943F0030338BFC9F8A0
:1008300000009360024B4FF400221A60BDE8F88F6D
:1008400000E100E000600140781B0000991B0000FF
:10085000801B0000841B0000901B00006C1B00002C
:10086000941B00008C1B0000701B0000881B000004
:10087000981B0000741B0000F8B57E4B5E68F2B256
:100880009E681640B20776D518697B4D20F4FF4468
:100890002B7824F07F04A4B2C0B2052B66D8DFE821
:1008A00003F0036161172B58002C64D0F1285AD152
:1008B000724B0024724A1C8011681A8892B28854C4
:1008C0001A88013292B21A801B889BB2CC5411E074
:1008D000002C50D06B4B1B78984244D1674A0023C0
:1008E00013806749138809689BB2C8541388013381
:1008F0009BB2138004233DE0002C34D15F4F604B4A
:100900003A88196892B20A4412F8013CF12B3B462E
:100910000AD13B889BB2C8543B889BB20B4413F866
:10092000010CFFF73DFE1BE0574C3A88248892B239
:10093000A24206D23A8892B288543A88013292B2E0
:100940003A801B889BB2A34215D14C4B188880B2C9
:100950000DE044B94A4B1B6858700220FFF7DEFDDA
:100960002C7008E03CB1FFF71BFE04E00020FFF70D
:10097000D5FD00232B70F3077AD53F4C237826460C
:10098000022B20D0052B3CD0012B67D13F4D2B886B
:100990009BB2002B30D03E4E2988376889B238464A
:1009A000FFF7DEFD2B889BB2984205D22B881B1ADD
:1009B0009BB22B80384416E000232B80354B1B68FC
:1009C000C3B1022353E0334D2B68ABB1324E2968DB
:1009D0003068FFF7C5FD2B68984206D22B681B1ABA
:1009E0002B60336818443060F8BD224A936823F0C6
:1009F0000103936003233AE000BEBDE8F840FFF72F
:100A0000D7BD244C236893B9244B1B6863B122489B
:100A100098472060236853B9164A936823F001036E
:100A200093600323337002E000BEFFF7C1FD23682B
:100A3000184D3BB90F4A936823F0010393600323D9
:100A40003370F8BD144C29682068FFF789FD2B68C6
:100A50001B1A2B60236818442060F8BD054A00204B
:100A6000936823F001039360FFF758FD0023237080
:100A7000F8BD00BF00600140981B00008C1B000007
:100A8000941B0000991B00006C1B0000801B0000E1
:100A9000741B0000901B0000841B0000701B0000F2
:100AA000E02807B51BD141F288330093224BD3F8DD
:100AB0009810009AC90402F1FF32009202D4009A01
:100AC000002AF3D1D3F8982022F46F6222F00C02AE
:100AD000C3F89820194B1B685BB3E02026E0E1289F
:100AE00016D141F288330193134BD3F89810019A31
:100AF000013A0192CA0402D5019A002AF4D1104A9F
:100B00001268C3F898200D4B1B6893B1E1200DE0EB
:100B1000F12808D080F08003202B04D900F14F0386
:100B2000DBB2062B05D8054B1B6813B1054A51787B
:100B3000984703B05DF804FB008003409C1B000055
:100B4000B41B0000AC1B000013B5144B1A78012A2B
:100B50001A461AD1124B1B78BBB141F2883301936C
:100B6000104BD3F89840019901390191E10402D466
:100B700001990029F4D100211170D3F8982022F4B2
:100B80006F6222F00C02C3F89820074B1B680BB170
:100B9000984700E0184602B010BD00BFC81A000018
:100BA000AE1B000000800340A81B0000064B1A6823
:100BB000064BDA60064A1268C3F89C20054B1B6896
:100BC0000BB1407818477047C41A000000800340FA
:100BD000B81B0000A41B0000024B00221A70024B3D
:100BE00019807047A01B0000B01B0000054B1A784D
:100BF00002F0FF01002AF9D101221A70024B19807C
:100C0000704700BFA01B0000B01B0000034B1B7807
:100C1000002BFBD1024B188880B27047A01B00004C
:100C2000B01B0000074B084A186000231380074AD6
:100C300007481370074B0849D3F89820074B1A60F0
:100C4000FFF7CEBC9C1B0000B01B0000A01B0000E7
:100C5000A10A000000800340AC1B0000B41B000090
:100C60004FF6020210B51E4B86B0D3F84C11044665
:100C7000914200D100BED3F84C111A4A914200D1E2
:100C800000BED3F84C21184B9A4200D100BE14F09C
:100C9000300F05D0124AD2F84C219A4200D100BE42
:100CA000FFF7A4FF17238DF8103005AB00930F4B0F
:100CB000022100220191029304A813468DF81140ED
:100CC000FFF7E0FCFFF7A2FF022806D19DF81430E1
:100CD000172B02D19DF8150000E0C82006B010BD0A
:100CE0000080034002F8010002F80200D90B000066
:100CF00002287FB504460D46164602D10120FFF7B3
:100D0000AFFF1C4B1C49DA680A60D3F89C001B49F2
:100D100042F4FF520860DA60194A14709CB1D3F8AB
:100D20009C200022C3F89C20D3F89C2042F400723F
:100D3000C3F89C20D3F89C2042F48062C3F89C2026
:100D4000104B01221A70FFF751FF15238DF80C305C
:100D50000D4B02211E600D4B03A81D600C4B0D4A6C
:100D600000930D4B8DF80D4001930B46FFF70CFDE2
:100D700004B070BD00800340C41A0000B81B00001E
:100D8000AE1B0000C81A0000A41B0000A81B000036
:100D9000490B0000B21B0000AD0B000000F07043D7
:100DA00003EB8101C0F3130001F100714001012345
:100DB0000B50704700F0704303EB8101C0F3130048
:100DC00001F10071400100230B50704700F07043A7
:100DD00003EB8101C0F3130001F1007140010858D9
:100DE000C0B270471E4B30B598421A4603D01D4B17
:100DF000984200D000BE016901B900BE436903B941
:100E000000BE904202D0174A904228D139B333B382
:100E10000268417B127DD2B21143920641730CD419
:100E2000826943699A421AD1BDE830400023436188
:100E3000006801210430FFF7BDBF82699B1A102BA7
:100E400028BF102300229A42EAD08469056901680C
:100E50002C5D01320C70816901318161F3E730BD95
:100E60002C1C0000EC1B000010B504460068037A3F
:100E700003F00F030C2B4BD8DFE803F0074A090FF0
:100E80000B4A0D4A4A4A4A4A0B00A36A3BE0636A8E
:100E900039E0236A37E0E36935E028300021FFF7C5
:100EA00095FF28B1E36A0BB900BE01E020469847E0
:100EB000206801212830FFF789FF28B1236B0BB987
:100EC00000BE01E020469847206802212830FFF745
:100ED0007DFF28B1636B0BB900BE01E02046984747
:100EE000206803212830FFF771FF28B1A36B0BB9ED
:100EF00000BE01E020469847206804212830FFF713
:100F000065FF30B1E36B1BB12046BDE810401847C8
:100F100000BE10BD2DE9F843714B04469842984637
:100F20000E4617466F4B04D06F4A904213D000BE56
:100F300011E04FF0804202600A2202719A6C4FF475
:100F4000806142F080029A64684AC2F880119A6C0B
:100F500022F080020FE0664A4FF4006122600B220B
:100F600022719A6C42F480729A64604AC2F88011CD
:100F70009A6C22F480729A64236800251D7123689C
:100F800001211D7220680830FFF708FF2068022148
:100F90000830FFF703FF206829460830FFF7FEFE00
:100FA000206804211030FFF705FF2068052110306C
:100FB000FFF700FF206801213430FFF7FBFE2068B7
:100FC00029463430FFF7F6FE206801213830FFF75C
:100FD000F1FE206805213030FFF7ECFE2068062185
:100FE0003030FFF7E7FE206807213030FFF7E2FEE0
:100FF000206803213830FFF7DDFE2368444583F87D
:101000004450236883F84850236883F84C5002D03A
:10101000354B9C4211D1A66000F018FA44450CBF34
:10102000344B354B1B68DB00B3FBF6F94FEAD913A1
:10103000B3F5803F4FEA590501D300BE3CE0012BD8
:1010400020685FFA83F823D9A5EB8315A5EBC313BA
:101050004B440C300721A3EB4505FFF79FFE2268A8
:10106000C9F3C73313712368072183F80080206810
:101070000C30FFF79FFE206807213030FFF78EFE0F
:10108000FF2D00D900BE2368EDB283F83C5013E079
:101090000C300721FFF782FE236800221A712368B3
:1010A000072183F8008020680C30FFF783FE20685A
:1010B00007213030FFF77EFE23681F73002327735C
:1010C0006373A66063612361A36123626362E3616A
:1010D000A362E36223636363A363E363BDE8F8830E
:1010E0002C1C000000800340EC1B000000E100E02D
:1010F00000000140DC1A0000E01A00000E4B10B5A1
:101100009842044603D00D4B984200D000BE2046C2
:10111000FFF700FF206803213030FFF74BFE206807
:1011200002213430FFF746FE206800213830FFF7F7
:1011300041FE034B636210BD2C1C0000EC1B000041
:10114000E50D0000174BF0B5984203D0164CA042B5
:1011500000D000BE01B900BE02B900BE984202D064
:10116000114B98421DD1E1B1DAB100240368457BEF
:101170001B7DDBB21D4345739D06F7D50F2A01EB9E
:10118000040698BF1346354688BF1023076815F834
:1011900001EB87F800E0AF1B9F42F7D3D21A1C4443
:1011A000E4D1F0BD2C1C0000EC1B0000684620F0D0
:1011B00007018D4601B50348FFF756FEBDE8014023
:1011C000854670472C1C0000684620F007018D46BC
:1011D00001B50348FFF748FEBDE80140854670476A
:1011E000EC1B000070B5234C4FF420752668224C90
:1011F000754363511423734303F1402404F5803491
:101200006060A1601D4CB2F5803F1C44656898BFCA
:1012100092B24FEA15454FEA0545656098BF61688F
:10122000174B9BBF0A436260A2F5803200228CBF3D
:101230001A611A614FF0140202FB06F281BF01F538
:10124000803100F58030D96098600C4B13445A68A7
:1012500042F4E0025A604FF42073734303F1844375
:1012600003F520130122C3F8C0210022C3F8CC21CA
:1012700070BD00BFD81B0000C401284208400140D7
:10128000BC1B0000684620F007018D4619B51D4BB8
:101290001D491A68012402F5287041F820401420E5
:1012A00050431A49224401444868042A20F4E000CB
:1012B0004860174908BF00221A600A690C4662B1EB
:1012C0001449A0680B68042B0CBF002301330B608A
:1012D000E168237DFFF786FF10E01A6814235A4364
:1012E0000D4B9B5813F4E00308D1064A012013600C
:1012F000084A087013604B6803B19847BDE819406D
:1013000085467047D41B0000000028420840014079
:10131000BC1B0000D81B00000C400140684620F0B8
:1013200007018D4619B5234B1B6813F4706F1FD04E
:10133000214A4FF42073116814464B4303F1844350
:1013400003F52013D3F808322BB11C4B0220187080
:101350005B6803B1984722684FF420735A43184BD7
:101360009B582BB1154B032018705B6803B198474D
:10137000104B1B6813F4704F05D0104B04201870ED
:101380005B6803B198470F4A0F490123C2F8C8317F
:10139000C2F8803AC2F84834C1F8803AC2F8C83678
:1013A000C1F8843AC2F84839C1F8883ABDE8194012
:1013B0008546704700400140D41B0000BC1B000064
:1013C0000C0228420000284204002842074B084A29
:1013D0001860084B1860084B1860084B1A60084BDF
:1013E0001860084B1860084B18607047E41A00003A
:1013F00020BCBE00DC1A0000E01A0000D01A000079
:10140000D41A0000D81A0000CC1A00004FF60202CD
:101410000C4BD3F84C11914206D00B4A536943F45C
:1014200000735361FFF706B8D3F8982042F4807236
:10143000C3F89820D3F8982022F08062C3F898204F
:10144000EBE700BF0080034000ED00E01D4B82B0E1
:10145000D3F8982051012AD4D3F89820D20411D47B
:10146000194B1A4A1A4913601A4A13601A4A136030
:101470001A4A11601A4A13601A4A13601A4A136012
:1014800002B070476A4619490868496803C2D3F830
:101490009C2002A9C2F382120A4412F8082C012AE5
:1014A00002D004D312480AE04FF4004007E0D3F81A
:1014B0005031104813F0040F034B18BF184602B008
:1014C000FFF784BF0080034080F0FA02E41A0000B6
:1014D00020BCBE00DC1A0000E01A0000D01A000098
:1014E000D41A0000D81A0000CC1A00007C190000A1
:1014F00040420F0040787D0107B5019018B90848B7
:101500000849012207E0064807490122FFF71AFEB1
:10151000034801A90822FFF715FE03B05DF804FB9C
:10152000EC1B0000841900008619000070B5064607
:10153000002090420BD20C183568631A287DC00732
:1015400003D52B7804F8013BF6E71846F1E770BDA8
:10155000F0B5434E434C4FF4805385B0029322685C
:1015600033680746934201D002B923603E4B22689C
:101570001B6802F58051994284BF991A02919A42E0
:1015800068D2002539483A490122FFF7DBFD374888
:1015900001A90122FFF7CAFF0028F8D02368DB0861
:1015A00003939DF80430612B04D1304803A908222D
:1015B000FFF7C8FD2D4801A90122FFF7B7FF00285A
:1015C000F8D09DF80430612B04D1284802A90422E8
:1015D000FFF7B8FD254801A90122FFF7A7FF002862
:1015E000F8D09DF80430612B05D120482149029A9A
:1015F000FFF79CFF05461D481F490122FFF7A2FD8A
:101600001A4801A90122FFF791FF0028F8D0029B98
:101610000022591E0123B1FBF3F020B11548185CDC
:101620005B004240F7E79DF804309A420CD12368F2
:101630000E482B44236033680F492B44012233604A
:10164000FFF780FD284606E008480C490122FFF715
:1016500079FD97E70020074B3B6005B0F0BD00BF68
:10166000E01B0000E81B0000DC1B0000EC1B00007E
:10167000881900006C1C00008A1900008C190000F9
:1016800013B5032252484FF46141FFF737FD0020A4
:10169000FFF7C8FA4E4869460122FFF747FF0028C6
:1016A000F8D09DF80030682BF4D14948494901220F
:1016B000FFF748FD464869460122FFF737FF00283B
:1016C000F8D09DF800306E2B04D1414842490122E8
:1016D000FFF738FD3E4869460122FFF727FF002843
:1016E000F8D09DF80030732B04D139483B490122D2
:1016F000FFF728FD364869460122FFF717FF00284B
:10170000F8D09DF80030612B04D1314834490122D2
:10171000FFF718FD2E4869460122FFF707FF002852
:10172000F8D09DF80030652B04D129482D490122BD
:10173000FFF708FD264869460122FFF7F7FE00285B
:10174000F8D0234823490122FFF7FCFC2048264912
:101750000122FFF7F7FC1E4869460122FFF7E6FE6B
:101760000028F8D0214C9DF800301948204901226A
:101770002370FFF7E7FC164869460822FFF7D6FEFC
:101780000028F8D0684600F03BF81A4B1149186061
:1017900001220F48FFF7D6FC2378312B09D0322BDA
:1017A0000DD0302B13D100201349144AFFF7A0FAB3
:1017B0000DE001201049114AFFF79AFA07E00020D6
:1017C000FFF730FA02200C490C4AFFF791FAFEE7C6
:1017D000EC1B00008A1900008E190000901900000F
:1017E000921900009419000096190000E41B0000F3
:1017F00098190000DC1B000051150000F9140000CE
:1018000000210A2200F0ACB80E4B70B51E460E4CFB
:101810000025E41AA410A54204D056F825309847B4
:101820000135F8E700F03CF9084B094C1E46E41A74
:10183000A4100025A54204D056F82530984701355C
:10184000F8E770BDB81A0000B81A0000B81A000016
:10185000BC1A00002DE9F0470F46404CD4F8009028
:101860003D4615F801EB09EB0E04667806F0080416
:1018700004F0FF060CB12F46F2E774462D2C03D17D
:10188000BD1C7C78012603E02B2C04BF7C78BD1C9A
:1018900013B1102B0AD15AE0302C56D12C7804F019
:1018A000DF04582C4CD16C7810230235002E14BF65
:1018B0004FF000486FF00048B8FBF3FA0027BE462F
:1018C00003FB1A8809EB040C9CF801C01CF0040F00
:1018D00001D0303C0BE01CF0030C1BD0BCF1010F1D
:1018E0000CBF4FF0370C4FF0570CCCEB04049C426C
:1018F00010DAB7F1FF3F0AD0D64506D801D14445EA
:1019000003DC03FB0E4E012701E04FF0FF3715F813
:10191000014BD7E77C1C73460AD1002E4FF0220101
:1019200014BF4FF000436FF0004301602AB911E08B
:101930000EB1CEF100036AB107B1691E116009E072
:101940003024002BB2D10823B0E70A23AEE7302CB5
:10195000ACD1A3E71846BDE8F08700BF4C1B0000E0
:1019600030B505460C461346034A29461068224600
:10197000BDE83040FFF76EBF481B000000010001CA
:101980000202030370007100620061006E006400D7
:1019900068006B0072006D007A0043000020202078
:1019A000202020202020282828282820202020200F
:1019B00020202020202020202020202020881010DF
:1019C000101010101010101010101010100404043B
:1019D00004040404040404101010101010104141F9
:1019E00041414141010101010101010101010101E7
:1019F00001010101010101011010101010104242FB
:101A000042424242020202020202020202020202B6
:101A10000202020202020202101010102000000056
:101A200000000000000000000000000000000000B6
:101A300000000000000000000000000000000000A6
:101A40000000000000000000000000000000000096
:101A50000000000000000000000000000000000086
:101A60000000000000000000000000000000000076
:101A70000000000000000000000000000000000066
:101A80000000000000000000000000000000000056
:101A90000000000000000000000000000000000046
:101AA000F8B500BFF8BC08BC9E467047F8B500BF4B
:101AB000F8BC08BC9E467047E5040000C104000065
:101AC00000000000F11F00000100000080F0FA0299
:101AD00020BCBE0080F0FA0280F0FA0280F0FA0228
:101AE00080F0FA0280F0FA0200000000000000001E
:101AF00000000000000000000000000000000000E6
:101B000000000000000000009A1900000000000022
:101B100000000000000000000000000000000000C5
:101B200000000000000000000000000000000000B5
:101B300000000000000000000000000000000000A5
:101B40000000000000000000E81A00009C190000DE
:040000030000019167
:00000001FF
